:0400000067EF00F0B6
:06000800228269ED00F008
:100018002280D8CF11F0E8CF12F0E0CF13F0FACF5A
:1000280014F0FBCF15F0E9CF16F0EACF17F0E1CFC7
:1000380018F0E2CF19F0D9CF1AF0DACF1BF0F3CFCE
:100048001CF0F4CF1DF0F6CF1EF0F7CF1FF0F8CF5D
:1000580020F0F5CF21F0F29EF0A010D08AAC02D0AB
:10006800010E01D0000EFF0A106E103A104610461D
:100078008A501018BF0B10188A6EF090F28E21C0AB
:10008800F5FF20C0F8FF1FC0F7FF1EC0F6FF1DC018
:10009800F4FF1CC0F3FF1BC0DAFF1AC0D9FF19C058
:1000A800E2FF18C0E1FF17C0EAFF16C0E9FF15C05C
:1000B800FBFF14C0FAFF13C0E0FF12C0E8FF11C035
:1000C800D8FF22901000C6EF00F00600FACF02F029
:1000D800FBCF03F0E9CF04F0EACF05F0E1CF06F05B
:1000E800E2CF07F0D9CF08F0DACF09F0F3CF0AF062
:1000F800F4CF0BF0F6CF0CF0F7CF0DF0F8CF0EF0F1
:10010800F5CF0FF0F29EF2A20FD08AAE02D0010E08
:1001180001D0000EFF0A016E013201328A50011827
:100128007F0B01188A6EF292F28E0FC0F5FF0EC097
:10013800F8FF0DC0F7FF0CC0F6FF0BC0F4FF0AC0B4
:10014800F3FF09C0DAFF08C0D9FF07C0E2FF06C005
:10015800E1FF05C0EAFF04C0E9FF03C0FBFF02C0DE
:10016800FAFF2292110093809382939E939C8A9E19
:100178008A9CD08EF086F09CF18AF288F18CF28EFF
:0E018800F28CFFD7229022920001B7EF00F018
:020000040020DA
:08000000FFFFFFFFFFFFFFFF00
:020000040030CA
:0E000000FF08191EFF8185FF0FC00FE00F40A3
:00000001FF
